:020000040000FA
:10000000086B0220D1030000110400008D020000E3
:10001000150400001704000019040000000000008F
:10002000000000000000000000000000CD01000002
:100030001D0400000000000029020000AB39000090
:100040002304000023040000230400002304000014
:100050002304000023040000230400002304000004
:1000600023040000230400002304000023040000F4
:1000700023040000230400002304000023040000E4
:1000800023040000230400002304000023040000D4
:1000900023040000230400002304000023040000C4
:1000A00023040000230400002304000023040000B4
:1000B00023040000230400002304000023040000A4
:1000C0002304000023040000230400002304000094
:1000D000230400001D8F02002304000023040000FD
:1000E0002304000023040000230400002304000074
:1000F0002304000023040000230400002304000064
:100100002304000023040000230400002304000053
:100110002304000023040000230400002304000043
:100120002304000023040000230400002304000033
:100130002304000023040000230400002304000023
:100140002304000023040000230400002304000013
:1001500023040000230400002304000039040000ED
:1001600023040000230400002304000023040000F3
:1001700023040000230400002304000023040000E3
:1001800023040000230400002304000023040000D3
:1001900023040000230400002304000023040000C3
:1001A00023040000230400002304000023040000B3
:1001B0002304000023040000DFF80CD02CF01CF80E
:1001C0000048004783060000086B02202C4B19688A
:1001D0000868B0E8F04F80F30988BFF36F8F4FF0E5
:1001E000000080F311887047000000000848006894
:1001F000006880F308884FF0000080F3148862B62E
:1002000061B6BFF34F8FBFF36F8F00DF00BF00BF3A
:1002100008ED00E0DFF80C00016841F470010160B6
:10022000704700BF88ED00E0EFF30980BFF36F8FE8
:10023000134B1A681EF0100F08BF20ED108A20E93A
:10024000F04F106009B44FF0500080F31188BFF3F5
:100250004F8FBFF36F8F02F006F84FF0000080F36E
:10026000118809BC19680868B0E8F04F1EF0100F3B
:1002700008BFB0EC108A80F30988BFF36F8F704716
:1002800040000020EFF30580704700000420714615
:10029000084202D0EFF3098001E0EFF308807146D5
:1002A000004A1047C748000070B504F08CF83E497A
:1002B00008603E48006800F00705022D02D108469C
:1002C000046802E03A4850F8254038481030006889
:1002D00000F00F00461CB4FBF6F0364908600846F3
:1002E0000068354908444900B0FBF1F03349086023
:1002F00070BD10B53248006840F4700030490860A5
:100300003048C06C20F00F0040F008002D49C86450
:100310000E2003F02AFF0E2004F093FB2A484068C9
:1003200040F00200284948600846406840F0040058
:10033000486000BF24484068C0F380000028F9D01E
:100340001A488830006840F480204FF08041C1F89E
:1003500098020846D0F8080240F00200C1F80802EE
:100360001A48D0F8040100F0F7301849C1F8040128
:100370000846D0F8080100F0F730C1F808018804F9
:10038000D0F8080220F0020008490839086000BFD0
:100390004FF04020D0F8400120F0F0004FF0402115
:1003A000C1F8400100BF10BD08000020100200404D
:1003B0000C0000200000002020A107000400002005
:1003C00088ED00E000C000400070004000100440D4
:1003D00014484FF0590101604FF0160101604FF0D1
:1003E000880101601048416841F4804141600F4834
:1003F000416841F002014160416841F004014160FF
:100400000B48804707484FF000010160094800474A
:10041000FEE7FEE7FEE7FEE7FEE7FEE7FEE7FEE7B4
:10042000FEE7FEE7000100400002004000700040CF
:10043000F3020000B90100004548406800F4803034
:1004400030B10120434908600004414948600AE096
:100450003F48406800F0030028B101203E49086091
:1004600003203B494860704770B50446254600BFED
:1004700000BF00BF59203949086016208905C1F81E
:1004800000018820C1F80001C006D0F80001002852
:10049000F0D000BF0C2003F068FE00BF00202F4901
:1004A000086000BF472000F01F020121914042096F
:1004B000920002F1E022C2F8001100BF2448006857
:1004C00040F480302249086002F0D6F806463346F0
:1004D000012203211E4804F055FD1D4804F05AFD79
:1004E00000BF1C4800680028FBD02946184804F0CB
:1004F00056FD1748006820F480301549086070BD2B
:100500002DE9F04188B080460D4614461F4600266E
:1005100005E02846FFF7A8FF20352036203C202C98
:10052000F7D244B16846FFF79FFF22466946284646
:100530002BF074F926443E60002008B0BDE8F0813D
:1005400000B589B001A8FFF78FFF019809B000BD81
:10055000000008502C000020300000200001004066
:1005600008B502F089F80090B6A02CF087F800BF1B
:1005700041F28831684601F00AFD02F07DF8044638
:100580002146B7A02CF07AF8012001F04FFDEFE7EB
:1005900010B500BF00BF00BF5920B6490860162043
:1005A0008905C1F800018820C1F80001C006D0F813
:1005B00000010028F0D000BFAF48006820F0F00034
:1005C0004FF04021C1F84001012004F063F8012000
:1005D00003F0AAFEA94804F003F81120A849086016
:1005E000A84803F0C2FDA84803F0BFFD0022114651
:1005F000A44803F084FD4FF4FC020021A24803F05C
:100600007EFDFFF751FE4FF08040C06B20F47F006D
:100610004FF08041C8630846C06B40F4CC00C8630B
:100620000846006B40F04C5008630846006C40F0F0
:100630004C5008640846406C40F00300486408468B
:10064000406D924908434FF0804148654FF0A870D3
:100650004FF04021C1F8280100BF00208549086003
:1006600000BF4FF4E1318A4804F068FA10BD10B5BC
:100670000F2200214FF4A06006F0EAF8FFF788FF90
:1006800010BD10B5FFF7F3FF82A006F008F986A0B1
:1006900006F005F901F075FF002010BD10B586B019
:1006A0000020019027F080FC04461CB984A006F0CD
:1006B000F6F808E08EA006F0F2F84FF47A7001F038
:1006C000B5FC00BFFEE794A0029008208DF80C0056
:1006D00093A004900B208DF8140003208DF81500D2
:1006E00000208DF8160002A827F093FC0446002C89
:1006F00013D18EA006F0D3F801A827F07BFD0446A5
:100700005CB99DF8070000909DF806309DF8052023
:100710009DF8041095A006F0C2F806B010BD1CB5F7
:100720000BF014F801280BD1FFF7B8FF0020009060
:1007300003464FF4006296A10190984801F0FDF93C
:100740001CBD70472DE9FC4104460D464FF47A76F6
:10075000002001902746009500BF2A46214690A020
:1007600006F09DF800BF502080F31188BFF34F8F33
:10077000BFF36F8F00BF03E04FF47A7001F056FCB7
:1007800001980028F8D0002080F3118800BFBDE850
:10079000FC81894B0360894B0B604FF480731360BD
:1007A0007047874B0360874B0B604FF48073136077
:1007B000704785A0704770B50546FFF7FAFF0646FB
:1007C000314628462BF081F808B9012407E084A1BE
:1007D00028462BF07AF808B9012400E000242046CE
:1007E00070BD70B501244FF47A7501F045FF804962
:1007F0000860084600687F490968401AB0F57A7FAA
:1008000003D97B4800687B49086070BD10B503F0D0
:100810004DFC04462246784978A006F040F810BD09
:1008200000BF502080F31188BFF34F8FBFF36F8F4D
:1008300000BF00BFFEE77B480068401C79490860A4
:1008400070470000436865636B205461736B2069D7
:10085000732072756E6E696E67202E2E2E0A000050
:10086000436865636B2064656C6179202E2E2E25AC
:10087000640A0000000100404041004000B0710BDC
:1008800034020040103D805705FE0B003333030057
:10089000000007404672656552544F535F49504906
:1008A0006E69740A00000000765461736B537461C2
:1008B00072745363686564756C6572350A00000074
:1008C00057692D4669206D6F64756C6520696E6986
:1008D0007469616C697A65642E20436F6E6E65631E
:1008E00074696E6720746F2041502E2E2E0D0A0001
:1008F00057692D4669206D6F64756C652066616966
:100900006C656420746F20696E697469616C697AC2
:10091000652E0D0A00000000496F542D506F4300F2
:1009200061313233343536373862000057692D462D
:100930006920436F6E6E656374656420746F204137
:10094000502E204372656174696E67207461736B09
:100950007320776869636820757365206E657477A6
:100960006F726B2E2E2E0D0A0000000049502041A0
:100970006464726573732061637175697265642064
:1009800025642E25642E25642E25640D0A000000A2
:100990005465737452756E6E65720000E5B60000A2
:1009A0007641737365727443616C6C656420257362
:1009B0002C20256C640A0000E00200204403002083
:1009C00044070020A80700206964742D38313934A9
:1009D0003834363030343835333139323533340009
:1009E0004E75766F746F6E5F44656D6F000000002A
:1009F00034000020380000201DD1020025733A2069
:100A00004D696E696D756D2046726565204865613A
:100A1000702053697A65205B25645D0D0A0D0A0D0F
:100A20000A0000003C00002000F1080141604FF086
:100A3000FF31816000F10801C160016100210160A6
:100A4000704700210161704742684A6093688B607B
:100A5000936859609160086103685B1C036070478C
:100A600010B502460B685C1C0CB9106907E002F176
:100A7000080000E04068446824689C42FAD9446851
:100A80004C604C68A160886041600A611468641C15
:100A9000146010BD01460A69D1E901309860D1E9BE
:100AA000010358605068884201D188685060002076
:100AB00008611068401E10601068704770B50546E8
:100AC0000E462C461CB90121FC482BF0F5F802F02B
:100AD00035FFD4E90F12206801FB0200606000209E
:100AE000A0632068A060E06B401E226C216800FBC0
:100AF0000210E060FF2084F8440084F845009EB9AD
:100B0000206908B9012000E00020A8B904F1100014
:100B100001F024FF80B14FF08050E9490860BFF335
:100B20004F8FBFF36F8F07E004F11000FFF77CFFDA
:100B300004F12400FFF778FF02F021FF012070BDCF
:100B40002DE9F04106460D4617469846069C0DB91C
:100B5000246000E02760E663256401212046FFF75A
:100B6000ADFF84F84C80BDE8F0812DE9F843804664
:100B70000E4617461D46DDF82090B8F1000F01D053
:100B8000012000E0002018B90121CC482BF094F896
:100B90000DB1012000E0002018B90121C7482BF059
:100BA0008BF807B10EB1012000E0002018B9012137
:100BB000C2482BF081F807B90EB9012000E00020EF
:100BC00018B90121BD482BF077F85020009000980B
:100BD000502801D1012000E0002018B90121B748B8
:100BE0002BF06AF82C464CB1012084F846004B46A5
:100BF0003A46314640460094FFF7A2FF2046BDE842
:100C0000F8832DE9F84305460E4690460DB10120C4
:100C100000E0002018B90121A8482BF04DF80EB9CA
:100C2000002701E005FB06F707F1500003F07FF90C
:100C300004465CB104F15009002084F846004346A4
:100C40004A46314628460094FFF77AFF2046BDE821
:100C5000F88370B5044602F071FE94F9455010E037
:100C6000606A08B9012000E0002038B904F12400CE
:100C700001F074FE18B101F051FF00E003E0681EBE
:100C800045B2002DECDC00BFFF2084F8450002F0E7
:100C900076FE02F053FE94F9445010E0206908B942
:100CA000012000E0002048B904F1100001F056FED8
:100CB00008B101F033FF681E45B200E001E0002DED
:100CC000ECDC00BFFF2084F8440002F058FE70BD49
:100CD00070B5054602F032FEA86BE96B884201D17F
:100CE000012400E0002402F04AFE204670BD2DE9F8
:100CF000F04104460F4615464FF00008A66B206CE5
:100D000040B9206860BB606801F083FF8046002026
:100D1000606025E07DB93946226CA0682AF07EFD2E
:100D2000216CA0680844A060D4E90110884217D360
:100D30002068A06014E03946226CE0682AF06EFD5D
:100D4000216CE068401AE0602168E068884203D2C4
:100D5000216C6068401AE060022D01D106B1761E58
:100D6000701CA0634046BDE8F0812DE9FF4383B0CD
:100D7000064688461D464FF0000934461CB901213D
:100D80004E482AF099FFB8F1000F01D1206C08B944
:100D9000012000E0002018B9012148482AF08CFF0A
:100DA000022D02D1E06B012801D1012000E00020DA
:100DB00018B9012141482AF07FFF01F0C1FE08B9AE
:100DC000059808B9012000E0002018B901213B482E
:100DD0002AF072FF00BF02F0B1FDA06BE16B884208
:100DE00001D3022D28D12A4641462046FFF77FFF36
:100DF0000746606A08B9012000E0002068B904F1E4
:100E0000240001F0ABFD88B14FF080502C49086000
:100E1000BFF34F8FBFF36F8F08E03FB14FF08050AB
:100E200027490860BFF34F8FBFF36F8F02F0A7FD14
:100E3000012007B0BDE8F083059818B902F09FFDC6
:100E40000020F6E7B9F1000F04D101A801F02BFE54
:100E50004FF0010902F093FD01F093F802F06EFDEE
:100E600094F94400401C10B9002084F8440094F91F
:100E70004500401C10B9002084F8450002F07FFDB9
:100E800005A901A801F016FE10BB2046FFF720FFC0
:100E9000C0B104F11000059901F012FD2046FFF7E2
:100EA000D8FE00F0C7FF002895D14FF080500449CC
:100EB0000860BFF34F8FBFF36F8F8CE73061022064
:100EC00004ED00E02046FFF7C4FE00F0B3FF82E728
:100ED0002046FFF7BEFE00F0ADFF0020A9E710B5E9
:100EE00004464CB1002060602060E06000231A4698
:100EF00019462046FFF739FF10BD2DE9F0410446A1
:100F000001260027224600210120FFF77AFE054630
:100F10002846FFF7E4FF2846BDE8F0812DE9F843B5
:100F200004460D4601274FF000082B4600221146CB
:100F300001200094FFF719FE06463046FFF7CFFF69
:100F40003046BDE8F88370B5054602F0F7FC286826
:100F500008B96C6800E0002402F011FD204670BD65
:100F600070B504461CB90121FE482AF0A5FE206890
:100F700008B9656800E00025284670BD70B50646D2
:100F800034461CB90121F7482AF096FE01F0D5FD40
:100F9000616888420CD1E068401EE060E06828B9D2
:100FA00000231A4619462046FFF7DFFE012500E020
:100FB0000025284670BD01464A6A22B10A6B1268B4
:100FC000C2F1070000E00020704770B5054602F04E
:100FD000B5FCA86B08B9012400E0002402F0CFFCA6
:100FE000204670BD2DE9F34182B005464FF0000860
:100FF0002C4600261CB90121DA482AF05DFE206C3F
:1010000008B9012000E0002018B90121D5482AF0D4
:1010100053FE01F095FD08B9039808B9012000E0DE
:10102000002018B90121CF482AF046FE00BF02F087
:1010300085FCA76BFFB1781EA063206810B901F092
:10104000A9FE6060206908B9012000E0002060B9B5
:1010500004F1100001F082FC38B14FF08050C24919
:101060000860BFF34F8FBFF36F8F02F088FC012041
:1010700004B0BDE8F081039860B90EB9012000E02A
:10108000002018B90121B7482AF016FE02F077FCBB
:101090000020EDE7B8F1000F04D1684601F003FD30
:1010A0004FF0010802F06BFC00F06BFF02F046FC11
:1010B00094F94400401C10B9002084F8440094F9CD
:1010C0004500401C10B9002084F8450002F057FC90
:1010D00003A9684601F0EEFC40BB2046FFF775FF10
:1010E000F0B1206838B902F029FC606801F034FDE5
:1010F000064602F044FC04F12400039901F0E0FBF1
:101100002046FFF7A6FD00F095FE00288FD14FF096
:10111000805095490860BFF34F8FBFF36F8F86E70C
:101120002046FFF796FD00F085FE80E72046FFF79A
:1011300090FD00F07FFE2046FFF747FF0028EED02D
:101140005EB102F0FBFB2046FFF735FF074639464C
:10115000606801F0AEFD02F012FC002088E72DE986
:10116000F04106460F4634461CB901217D482AF05D
:10117000A3FD01F0E2FC6168884204D1E068401CF4
:10118000E060012508E039462046FFF72BFF0546C1
:1011900015B1E068401CE0602846BDE8F081F8B574
:1011A00005460E4617460DB1012000E0002018B993
:1011B00001216C482AF080FDAE4201D8012000E0F8
:1011C000002018B9012167482AF076FD02203B462D
:1011D0000022114600902846FFF7C7FC044604B1E0
:1011E000A6632046F8BD70B505460E460DB1012038
:1011F00000E0002018B901215A482AF05DFDAE42F6
:1012000001D8012000E0002018B9012155482AF03A
:1012100053FD022200212846FFF7F3FC044604B1E7
:10122000A663204670BD2DE9F05F07468A469046CA
:101230001E463C461CB901214A482AF03DFDBAF140
:10124000000F01D1206C08B9012000E0002018B97E
:10125000012144482AF030FD022E02D1E06B012822
:1012600001D1012000E0002018B901213D482AF0F9
:1012700023FD02F0B2FB00BF5020EFF3118180F399
:101280001188BFF34F8FBFF36F8F00BF0D46A06B68
:10129000E16B884201D3022E23D194F945B0324646
:1012A00051462046FFF723FD0BF1010088B9606A23
:1012B00008B9012000E0002080B904F1240001F009
:1012C0004DFB58B1B8F1000F08D00120C8F800005C
:1012D00004E00BF1010040B284F845004FF0010931
:1012E00001E04FF0000900BF85F3118800BF4846B8
:1012F000BDE8F09F2DE9F04706460F4634461CB97D
:10130000012118482AF0D8FC206C08B9012000E01F
:10131000002018B9012113482AF0CEFC206808B932
:10132000606808B9012000E0002018B901210D48CB
:101330002AF0C2FC02F051FB00BF5021EFF31180F4
:1013400081F31188BFF34F8FBFF36F8F00BF054646
:10135000D4F838A0E06B504523D994F945900AF1B0
:10136000010003E03061022004ED00E0A06309F118
:10137000010070B9606A08B9012000E0002068B976
:1013800004F1240001F0EAFA40B13FB101203860D5
:1013900004E009F1010040B284F845004FF0010873
:1013A00001E04FF0000800BF85F3118800BF404600
:1013B000BDE8F08770B504460D46206C70B1216C15
:1013C000E0680844E0606168E068884201D3206812
:1013D000E0602846226CE1682AF020FA70BD2DE911
:1013E000F74183B005460E464FF000082C461CB965
:1013F0000121FB482AF060FC0EB9206C08B90120DD
:1014000000E0002018B90121F5482AF055FC01F050
:1014100097FB08B9059808B9012000E0002018B929
:101420000121EF482AF048FC00BF02F087FAA76BC1
:10143000F7B131462046FFF7BDFF781EA063206953
:1014400008B9012000E0002060B904F1100001F0AB
:1014500085FA38B14FF08050E2490860BFF34F8FF2
:10146000BFF36F8F02F08BFA012006B0BDE8F08168
:10147000059818B902F083FA0020F6E7B8F1000FDA
:1014800004D101A801F00FFB4FF0010802F077FA38
:1014900000F077FD02F052FA94F94400401C10B9B4
:1014A000002084F8440094F94500401C10B9002045
:1014B00084F8450002F063FA05A901A801F0FAFAE0
:1014C000F0B92046FFF781FDA0B104F12400059991
:1014D00001F0F6F92046FFF7BCFB00F0ABFC00285A
:1014E000A3D14FF08050BF490860BFF34F8FBFF3C7
:1014F0006F8F9AE72046FFF7ACFB00F09BFC94E768
:101500002046FFF7A6FB00F095FC2046FFF75DFDA7
:1015100000288AD00020A8E72DE9F74382B00546CD
:101520000E464FF000082C461CB90121AC482AF0A9
:10153000C3FB0EB9206C08B9012000E0002018B9E7
:101540000121A7482AF0B8FB01F0FAFA08B904987B
:1015500008B9012000E0002018B90121A0482AF0B4
:10156000ABFB00BF02F0EAF9D4F83890B9F1000FF4
:101570001ED0E76831462046FFF71CFFE760606A2F
:1015800008B9012000E0002060B904F1240001F056
:10159000E5F938B14FF0805092490860BFF34F8FA2
:1015A000BFF36F8F02F0EBF9012005B0BDE8F083C7
:1015B000049818B902F0E3F90020F6E7B8F1000F3B
:1015C00004D1684601F06FFA4FF0010802F0D7F934
:1015D00000F0D7FC02F0B2F994F94400401C10B9B5
:1015E000002084F8440094F94500401C10B9002004
:1015F00084F8450002F0C3F904A9684601F05AFADC
:10160000F0B92046FFF7E1FCA0B104F124000499F1
:1016100001F056F92046FFF71CFB00F00BFC0028F8
:10162000A0D14FF080506F490860BFF34F8FBFF3D8
:101630006F8F97E72046FFF70CFB00F0FBFB91E76D
:101640002046FFF706FB00F0F5FB2046FFF7BDFC48
:10165000002887D00020A8E72DE9F05F06468946DC
:10166000174634461CB901215D482AF025FBB9F123
:10167000000F01D1206C08B9012000E0002018B94A
:10168000012157482AF018FB02F0A7F900BF5021AA
:10169000EFF3118081F31188BFF34F8FBFF36F8F8A
:1016A00000BF0546D4F838A0BAF1000F22D094F953
:1016B00044B049462046FFF77DFEAAF10100A06331
:1016C0000BF1010070B9206908B9012000E0002089
:1016D00068B904F1100001F041F940B13FB10120B7
:1016E000386004E00BF1010040B284F844004FF090
:1016F000010801E04FF0000800BF85F3118800BF2A
:101700004046BDE8F09F2DE9F0470646884634463E
:101710001CB9012132482AF0CFFAB8F1000F01D1EB
:10172000206C08B9012000E0002018B901212C48E4
:101730002AF0C2FA206C08B1012000E0002018B99C
:10174000012127482AF0B8FA02F047F900BF5021DA
:10175000EFF3118081F31188BFF34F8FBFF36F8FC9
:1017600000BF0546A06B48B1D4F80C904146204616
:10177000FFF720FEC4F80C90012700E0002700BF0F
:1017800085F3118800BF3846BDE8F08770B5044680
:101790001CB9012112482AF08FFA02F0CFF8A56B8C
:1017A00002F0EDF8284670BD70B5044625461DB917
:1017B00001210B482AF080FA02F0C0F8D5E90E109A
:1017C000461A02F0DCF8304670BD70B504461CB90C
:1017D000012103482AF070FAA56B284670BD00006D
:1017E0003061022004ED00E0014600200EE04B4A8B
:1017F00002EBC00252688A4207D10022474B43F8ED
:10180000302003EBC0035A6002E0401C0828EED3EE
:1018100000BF704770B5044625461DB901214048F8
:101820002AF04AFA2846FFF7DFFF95F8460010B97C
:10183000284602F000FC70BD0146886C7047816448
:101840007047014691F84C00704770B504461CB9CA
:10185000012133482AF030FAA06B08B9012500E0D5
:101860000025284670BD70B504461CB901212C48DE
:101870002AF022FAA06BE16B884201D1012500E039
:101880000025284670BD024600200BE0234B53F88C
:10189000303033B9214B43F8301003EBC0035A60AA
:1018A00002E0401C0828F1D300BF70470246002028
:1018B00000210AE0194B03EBC1035B68934203D19B
:1018C000164B53F8310002E0491C0829F2D300BF3F
:1018D00070472DE9F04105460E4617462C4602F0AA
:1018E0002DF894F94400401C10B9002084F84400FD
:1018F00094F94500401C10B9002084F8450002F01E
:101900003EF8A06B28B93A46314604F1240001F0B4
:101910000EF82046FFF79DF9BDE8F081A80B0020E6
:101920003061022010B5002407E004EB8401FE4A78
:1019300002EB8100FFF778F8641C072CF5D3FB4815
:10194000FFF772F8FA48FFF76FF8FA48FFF76CF8FC
:10195000F948FFF769F8F948FFF766F8F348F849DE
:101960000860F348F749086010BD10B5044601F05F
:10197000E5FFF5480068401CF3490860F34800683B
:1019800040B9F24804600846006801280DD1FFF70D
:10199000C9FF0AE0EE48006838B9EC480068C06A40
:1019A000E16A884201D8E9480460EA480068401CBE
:1019B000E849086008460068606494F82C1001202B
:1019C0008840E54909680843E3490860E16A01EB9A
:1019D0008101D54A02EB8100211DFFF735F801F0A6
:1019E000CEFFDB48006868B1D8480068C06AE16A89
:1019F000884207D24FF08050D8490860BFF34F8F1C
:101A0000BFF36F8F10BD2DE9F05F82460F46904601
:101A10009B460A9E0C9C4FEA8801A522206B29F068
:101A20001DFFA8F10100216B01EB800929F00709D6
:101A300009F0070008B9012000E0002018B90121D1
:101A4000C7482AF039F9002507E0795D04F1340030
:101A50004155785D00B902E06D1C102DF5D300BF33
:101A6000002143200155072E00D30626E662E664D6
:101A700000202065201DFEF7E4FF04F11800FEF7AA
:101A8000E0FF2461C6F10700A06164620020606588
:101A9000A06584F85C005A465146484601F091FE24
:101AA00020600B9808B10B980460BDE8F09F2DE909
:101AB000F04F85B00746884691469A46DDE90EB656
:101AC000109C0EB1012000E0002018B90121A448AB
:101AD0002AF0F2F80CB1012000E0002018B9012131
:101AE0009F482AF0E9F8642003900398642801D104
:101AF000012000E0002018B9012199482AF0DCF803
:101B0000ACB1A6B125462E63022085F85D00002009
:101B100004A953464A46CDE900B1CDE902504146F9
:101B20003846FFF770FF2846FFF71FFF01E000204F
:101B30000490049805B0BDE8F08F2DE9FF4F85B003
:101B4000804689461746DDE912ABB80002F0EFF98E
:101B5000064656B1642002F0EAF904460CB1266349
:101B600004E0304602F067FA00E000248CB1002067
:101B700084F85D00CDE900ABCDE902403A46494624
:101B80004046089BFFF73FFF2046FFF7EEFE01258A
:101B900001E04FF0FF35284609B0BDE8F08F6849F5
:101BA0000968096809B9012100E0002121B14FF05D
:101BB000FF316C4A116006E061490968C968C8686C
:101BC000684A41681160704710B5044694F85D009A
:101BD00030B9206B02F02FFA204602F02CFA13E005
:101BE00094F85D00012803D1204602F024FA0BE0AE
:101BF00094F85D00022801D1012000E0002018B90E
:101C0000012157482AF058F810BD70B5054601F07B
:101C100095FE15B94D48006800E028460446201D91
:101C2000FEF738FF78B9E06A00EB80003E4951F8D2
:101C3000200040B994F82C100120884046490968DA
:101C4000814345480160A06A18B104F11800FEF70D
:101C500021FF40480068401C3E4908603B4800683E
:101C6000844209D1211D3448FEF7EEFE3E4800684B
:101C7000401C3D49086009E033480068401E324975
:101C800008602046FFF7A0FFFFF789FF01F077FE0D
:101C90002F480068B0B12D480068844212D1334803
:101CA000006808B9012000E0002018B901212C4883
:101CB0002AF002F84FF0805028490860BFF34F8F98
:101CC000BFF36F8F70BD2DE9F0414FF0000827483A
:101CD000006800287DD126480068451C244805601E
:101CE000DDB917480068006808B9012000E000204D
:101CF00018B901211A4829F0DFFF11480768114877
:101D000000680F4908600F4807601A480068401CC7
:101D100018490860FFF743FF00BF1248006885427A
:101D200067D300BF064827E0E80B0020740C0020B2
:101D3000880C00209C0C0020B00C0020C40C00205B
:101D400044000020480000205400002040000020F3
:101D500064000020740000206000002004ED00E01A
:101D600030610220780000204C000020800000201C
:101D700058000020700000200068006808B90120A9
:101D800000E0002020B14FF0FF30FE4908602FE056
:101D9000FD480068C068C4686668B54202D2F94868
:101DA000066025E0201DFEF775FEA06A18B104F15B
:101DB0001800FEF76FFE94F82C1001208840F349BC
:101DC00009680843F1490860E16A01EB8101F04AC2
:101DD00000E020E002EB8100211DFEF735FEED4919
:101DE000E06A0968C96A88429CD34FF0010899E704
:101DF00000BFE8480068C06A00EB8000E44951F881
:101E00002000012801D94FF00108E348006808B913
:101E1000FEF711FD06E0E0480068401CDE4908605E
:101E2000FEF709FDDD48006808B14FF001084046A3
:101E3000BDE8F08170B500240026D948006818B9C3
:101E40000121D84829F038FF01F078FDD448006816
:101E5000401ED34908600846006800284FD1D24888
:101E6000006800284BD024E0D048C068C46804F162
:101E70001800FEF70FFE201DFEF70CFE94F82C1044
:101E800001208840C14909680843C0490860E16AE7
:101E900001EB8101BE4A02EB8100211DFEF7D4FD5A
:101EA000BC49E06A0968C96A884202D30120BB497B
:101EB0000860BE48006808B9012000E00020002842
:101EC000D2D00CB1FFF76BFEB348056865B100BF17
:101ED000FFF7F9FE10B10120B04908606D1E002D1A
:101EE000F6D10020AC490860AC48006838B1012642
:101EF0003007AF490860BFF34F8FBFF36F8F01F01A
:101F00003EFD304670BD2DE9F04105460E46A9481C
:101F10000768A0480068001DFEF7BCFD50B99D4849
:101F2000006890F82C100120884098490968814386
:101F300096480160681C38B936B196480168091D99
:101F40009D48FEF781FD1AE07C19924800684460C4
:101F5000BC4207D28F480168091D98480068FEF707
:101F60007FFD0CE08B480168091D87480068FEF77B
:101F700077FD84480068844201D282480460BDE84D
:101F8000F08187480068401C8549086070472DE94A
:101F9000F04704460F464FF000091CB90121814863
:101FA00029F08AFE0FB1012000E0002018B90121BC
:101FB0007C4829F081FE7A48006808B9012000E0D9
:101FC000002018B90121774829F076FEFFF7D9FFE4
:101FD000784806682068C5192068B04207D920688B
:101FE000A8420BD9B54209D94FF0010906E0206893
:101FF000A84201D8B54201D94FF001092560B9F1D5
:10200000000F03D0A81B0021FFF77DFFFFF712FF91
:102010008046B8F1000F07D14FF080506449086046
:10202000BFF34F8FBFF36F8FBDE8F08770B50446E5
:1020300000259CB15A48006808B9012000E0002042
:1020400018B90121574829F037FEFFF79AFF002100
:102050002046FFF758FFFFF7EDFE05463DB94FF06C
:10206000805053490860BFF34F8FBFF36F8F70BD2F
:102070002DE9F04107463E461EB90121494829F0A5
:102080001BFE44480068864201D100241EE001F096
:1020900055FC756901F073FC3B480068854203D02C
:1020A00046480068854201D102240FE0424885423B
:1020B00005D1B06A08B9032408E0022406E04048CC
:1020C000854200D00DB9042400E001242046BDE87B
:1020D000F08170B5044601F031FC14B92D48006858
:1020E00000E020460646F56A01F049FC284670BD2E
:1020F0002DE9F041054601F070FC00BF5021EFF3DF
:10210000118081F31188BFF34F8FBFF36F8F00BF32
:10211000044615B91F48006800E028460746FE6AD5
:1021200000BF84F3118800BF3046BDE8F0812DE97F
:10213000F04780460D464FF00009072D01D20120DF
:1021400000E0002018B90121164829F0B5FD072D3F
:1021500000D3062501F0F2FBB8F1000F02D10D48C3
:10216000006800E040460446E66CAE4277D0B542D7
:102170002CD90848006884422ED006480068C06AFE
:10218000A8421FE0780000204400002060000020EA
:10219000E80B002040000020680000206C000020B8
:1021A0008000002030610220540000209C0C0020A0
:1021B00004ED00E058000020C40C0020480000207E
:1021C000B00C002008D84FF0010905E0FB4800687A
:1021D000844201D14FF00109E76AE16AE06C88426C
:1021E00000D1E562E564A06900F0004010B9C5F1D6
:1021F0000700A06107EB8701F14A02EB81016069EA
:10220000884201D1012000E00020E0B1201DFEF74E
:1022100041FC30B90120B840EA4909688143E948E6
:10222000016094F82C1001208840E64909680843B1
:10223000E4490860E16A01EB8101E14A02EB8100B7
:10224000211DFEF701FCB9F1000F07D04FF08050BF
:10225000DD490860BFF34F8FBFF36F8F00BF01F000
:102260008EFBBDE8F08770B5D848006818B1012032
:10227000D74908604FE00020D5490860CF48006882
:10228000046B4FF0A5352068B0F1A53F0BD1606815
:10229000B0F1A53F07D1A068B0F1A53F03D1E06838
:1022A000B0F1A53F05D0C548016834310068FEF79C
:1022B000B7FAC8480068C14909680866C14800689B
:1022C000B0FA80F0C0F11F0404EB8400BC4951F85F
:1022D000200008B1012000E0002018B90121BE480B
:1022E00029F0EAFC04EB8401B54A02EB8100416865
:1022F0004968416000F1080142688A4202D14168A0
:10230000496841604168C968AC4A1160104600687C
:10231000006EB049086070BD70B5054601F00EFB57
:1023200015B9A648006800E028460446201DFEF7BF
:10233000B1FB78B9E06A00EB8000A14951F82000B8
:1023400040B994F82C10012088409E4909688143C7
:102350009C480160A06A18B104F11800FEF79AFBCE
:10236000211D9E48FEF770FB94F85C00012802D105
:10237000002084F85C0001F002FB9948006828B155
:1023800001F0DCFAFFF70BFC01F0F9FA8B4800686A
:10239000844222D19248006898B18C48006808B9FC
:1023A000012000E0002018B901218B4829F084FCAD
:1023B0004FF0805084490860BFF34F8FBFF36F8F99
:1023C0000BE08648006887490968884203D10020ED
:1023D0007A49086001E0FFF746FF70BD70B5054619
:1023E00000262C461DB901217B4829F065FC7B495C
:1023F0006069884201D1012000E0002070B17A4973
:10240000A06A884201D1012000E0002030B9A06A12
:1024100008B9012000E0002000B10126304670BD5F
:1024200070B505462C461DB901216B4829F044FCC6
:1024300074B36248006884422AD001F07FFA2046D3
:10244000FFF7CCFF10B3201DFEF724FB94F82C10EF
:10245000012088405B49096808435A490860E16ADD
:1024600001EB8101564A02EB8100211DFEF7ECFAD7
:102470005249E06A0968C96A884207D34FF0805020
:1024800051490860BFF34F8FBFF36F8F01F077FAA8
:1024900070BD2DE9F0410646002734461EB90121E2
:1024A0004D4829F009FC01F098FA00BF5021EFF3E4
:1024B000118081F31188BFF34F8FBFF36F8F00BF7F
:1024C00005462046FFF78AFF20B340480068E0B980
:1024D0003A49E06A0968C96A884200D30127201D89
:1024E000FEF7D8FA94F82C10012088403549096885
:1024F000084334490860E16A01EB8101304A02EB8C
:102500008100211DFEF7A0FA04E004F1180136480D
:10251000FEF79AFA00BF85F3118800BF3846BDE880
:10252000F08110B516E001F009FA3048C068C468BF
:10253000201DFEF7AFFA2B480068401E29490860AD
:102540002B480068401E2A49086001F018FA20460E
:10255000FFF73AFB264800680028E4D110BD00BF11
:10256000FFF7DFFF16480068012807D94FF08050B9
:1025700015490860BFF34F8FBFF36F8FFEF731F936
:10258000EEE710B586B000200590049003AA04A9D8
:1025900005A8FEF7FEF80022DDE904101346CDE998
:1025A0000021029013A11548039AFFF780FA1449FD
:1025B00008600846006828B3012424E04000002099
:1025C000E80B00206000002004ED00E08000002007
:1025D0006C0000205000002030610220C40C00205C
:1025E00064000020540000209C0C0020B00C00204F
:1025F0004C00002049444C45000000005F250000CD
:102600007C0000200024012C02D100F0A7FF04462A
:10261000012C15D100BF502080F31188BFF34F8FDC
:10262000BFF36F8F00BF4FF0FF30FE4908600120FD
:10263000FD4908600020FD49086001F0E7F809E065
:10264000601C08B1012000E0002018B90121F84801
:1026500029F032FB06B010BD10B500BF502080F34A
:102660001188BFF34F8FBFF36F8F00BF0020EE497B
:10267000086001F054F910BDEC4908687047ED4955
:102680000868704770B501F0A8F90025E7480468AC
:10269000204670BD70B501F0A0F90025E54804683A
:1026A000204670BDE4480068704770B5044614B910
:1026B000E248006800E0204605461DB90121DC48DB
:1026C00029F0FAFA05F1340070BD0246002101E05C
:1026D000521C491C1078A528FAD0890888B2704786
:1026E0002DE9F04107460C4690461E4617B9D348DF
:1026F000006800E038460546256005F1340060605A
:10270000E86A2061286BE061686CA060E86C606139
:102710000020A061052E12D0C8480068854202D171
:10272000002020730FE02673032E0CD1FFF729FC45
:10273000A86A08B102202073FFF77CFB03E028465B
:10274000FFF796FC2073B8F1000F04D0286BFFF759
:10275000BCFF208401E000202084BDE8F0812DE949
:10276000F04707460C4690460026206848B32046AE
:1027700041684968416000F1080142688A4202D11B
:102780004168496841604168D1F80C9000BF20461B
:1027900041684968416000F1080142688A4202D1FB
:1027A0004168496841604168CD6806EBC60007EBA7
:1027B0008001434601222846FFF792FF761C4D45D3
:1027C000E5D13046BDE8F0872DE9F0410546884661
:1027D000164600240727FFF7D4FB9748006880457A
:1027E00039D300BF7F1E07EB8702954B03EB8201B5
:1027F00004EBC40205EB82000122FFF7B0FF0444A2
:10280000002FEFD104EBC40105EB810002228D49BA
:102810000968FFF7A4FF044404EBC40105EB810041
:10282000022289490968FFF79AFF044404EBC401B6
:1028300005EB810004228549FFF791FF044404EB76
:10284000C40105EB810003228149FFF788FF04449E
:102850000EB100203060FFF7EDFA2046BDE8F081B0
:1028600070B504460E4614B97448056800E0254664
:1028700001F064F86E6501F082F870BD70B5044631
:1028800014B96E48056800E0254601F057F86E6DF2
:1028900001F075F8304670BD2DE9F04105460F4650
:1028A00015B96648046800E02C46606D20B13846D2
:1028B000616D8847064600E000263046BDE8F0819D
:1028C00070B504460D461CB90121594829F0F4F9A8
:1028D0005A48016818312046FEF7C2F801212846FF
:1028E000FFF711FB70BD70B504460D4616461CB9C6
:1028F00001214F4829F0E0F95648006808B101204D
:1029000000E0002018B90121494829F0D5F945F027
:1029100000404A49096888614848016818312046E2
:10292000FEF792F801213046FFF7EDFA70BD70B561
:1029300005460E4614461DB901213D4829F0BCF953
:102940003E48016818312846FEF77EF80CB14FF07A
:10295000FF3621463046FFF7D6FA70BD70B5064601
:10296000F068C4681CB90121314829F0A5F904F1C7
:102970001800FEF78FF837480068A8B9201DFEF749
:1029800089F894F82C1001208840334909680843DD
:1029900031490860E16A01EB8101294A02EB8100BB
:1029A000211DFEF751F804E004F118012B48FEF751
:1029B0004BF82249E06A0968C96A884204D90125AE
:1029C00001202749086000E00025284670BD70B549
:1029D00005460E461F48006808B1012000E00020AF
:1029E00018B90121124829F067F946F00040286023
:1029F000EC681CB901210E4829F05EF92846FEF763
:102A000049F8201DFEF746F894F82C100120884064
:102A100011490968084310490860E16A01EB810126
:102A2000074A1FE0780000206400002058000020C2
:102A3000306102205C000020540000204000002093
:102A4000E80B00204400002048000020B00C0020CB
:102A5000C40C002080000020600000209C0C00209E
:102A60006C00002002EB8100211DFDF7EDFFFE4907
:102A7000E06A0968C96A884202D90120FB490860F6
:102A800070BD10B504461CB90121F94829F014F9AC
:102A900000F054FFF74800682060F7480068606065
:102AA00000F06DFF10BDF34909680160F249096843
:102AB0004160704770B505460C461DB90121EC48D0
:102AC00029F0FAF81CB90121E94829F0F5F800F0DD
:102AD00035FFE94802686868131A2068401C08B985
:102AE000002617E0E34928680968884204D068682E
:102AF000904201D801260DE02068984207D920684D
:102B0000C01A20602846FFF7CEFF002602E0002012
:102B10002060012600F033FF304670BD0120D3490C
:102B200008607047014611B10A46906C00E0002031
:102B3000704708B1024691647047CB4908687047F6
:102B4000CE49096809B9012005E0CD49096809B9EC
:102B5000022000E00020704770B505462C46002694
:102B6000002D54D0C049E06A0968C96A884247D23A
:102B7000A06900F0004028B9BB480068C06AC0F1F5
:102B80000700A061E16A01EB8101BE4A02EB81010D
:102B90006069884201D1012000E0002050B3201D6F
:102BA000FDF778FF78B9E06A00EB8000B54951F88D
:102BB000200040B994F82C1001208840B2490968DF
:102BC0008143B1480160A8480068C06AE06294F897
:102BD0002C1001208840AC4909680843AA490860C4
:102BE000E16A01EB8101A74A02EB8100211DFDF79B
:102BF0002BFF03E09C480068C06AE062012606E003
:102C00009949E06C0968C96A884200D201263046B9
:102C100070BD70B505462C460026002D47D0924861
:102C20000068844201D1012000E0002018B9012190
:102C30008F4829F041F8206D18B901218C4829F0FE
:102C40003BF8206D401E2065E16CE06A88422ED082
:102C5000206D60BB201DFDF71DFF78B9E06A00EB19
:102C60008000884951F8200040B994F82C100120C8
:102C7000884085490968814383480160E06CE062CF
:102C8000E06AC0F10700A06194F82C100120884090
:102C90007D49096808437C490860E16A01EB8101CC
:102CA000784A02EB8100211DFDF7CEFE0126304659
:102CB00070BD2DE9F04706460F4634464FF0010936
:102CC000002E59D0206D18B90121694828F0F4FF71
:102CD000E06CB84201D23D4600E0E56CE06AA842F3
:102CE0004AD0206D012847D15F480068844201D056
:102CF000012000E0002018B901215D4828F0DCFF28
:102D0000D4F82C80E562A06900F0004010B9C5F14C
:102D10000700A06108EB88015A4A02EB8101606953
:102D2000884201D1012000E0002028B3201DFDF7DA
:102D3000B1FE78B9E06A00EB8000524951F82000FA
:102D400040B994F82C10012088404F49096881430C
:102D50004D48016094F82C10012088404A490968C8
:102D6000084349490860E16A01EB8101454A02EBE9
:102D70008100211DFDF768FEBDE8F0873A4909682A
:102D8000886939490968C96AC1F10701364A126878
:102D9000916170473448006830B13349096801F1E6
:102DA0005000096D491C01602F480068704770B5DC
:102DB00006460D4600F0C2FD2B480068806D88B9BC
:102DC00001202949096881F85C005DB1012128468C
:102DD000FFF799F84FF080502C490860BFF34F8FF0
:102DE000BFF36F8F00F0CBFD00F0A8FD1E48006818
:102DF000846D4CB126B100201B490968886503E049
:102E0000601E19490968886500201749096881F81A
:102E10005C0000F0B4FD204670BD2DE9F04107468E
:102E2000884614461D4600F089FD0F48006890F85A
:102E30005C0002282ED00C49096801F15800896D08
:102E4000B943016001200849096881F85C0055B167
:102E500001212846FFF757F84FF080500B490860D2
:102E6000BFF34F8F14E015E0400000206C000020FD
:102E70003061022070000020580000206400002013
:102E800080000020E80B00206000002004ED00E03E
:102E9000BFF36F8F00F073FD00F050FD1CB1C3480D
:102EA0000068806D2060C148006890F85C000228CE
:102EB00001D0002608E0BD49096801F15800896D7C
:102EC00021EA0801016001260020B849096881F85B
:102ED0005C0000F054FD3046BDE8F0812DE9F0477C
:102EE00006460D46174698464FF0010A1EB90121C5
:102EF000AF4828F0E1FE344600F020FDB8F1000FA5
:102F000002D0A06DC8F8000094F85C90022084F80C
:102F10005C00052F17D2DFE807F01503070B0D0043
:102F2000A06D2843A0650EE0A06D401CA0650AE0DE
:102F3000A56508E0B9F1020F01D0A56501E04FF0E9
:102F4000000A00E000BF00BFB9F1010F2CD1201D25
:102F5000FDF7A0FD94F82C100120884095490968E0
:102F6000084394490860E16A01EB8101924A02EB4F
:102F70008100211DFDF768FDA06A08B9012000E06D
:102F8000002018B901218A4828F096FE8749E06A96
:102F90000968C96A884207D94FF08050874908609C
:102FA000BFF34F8FBFF36F8F00F0E9FC5046BDE8D1
:102FB000F0872DE9F84F07460E4690469946DDF812
:102FC00028B0012000901FB90121794828F074FE33
:102FD00000F003FD3C4600BF5021EFF3118081F368
:102FE0001188BFF34F8FBFF36F8F00BF0546B9F154
:102FF000000F02D0A06DC9F8000094F85CA0022078
:1030000084F85C00B8F1050F17D2DFE808F015036B
:10301000070B0D00A06D3043A0650EE0A06D401CB5
:10302000A0650AE0A66508E0BAF1020F01D0A66526
:1030300001E00020009000E000BF00BFBAF1010FE6
:1030400037D1A06A08B9012000E0002018B9012199
:10305000574828F031FE5A480068A8B9201DFDF7EE
:1030600019FD94F82C100120884052490968084342
:1030700050490860E16A01EB81014F4A02EB81008F
:10308000211DFDF7E1FC04E004F118014D48FDF7B6
:10309000DBFC4649E06A0968C96A884209D9BBF184
:1030A000000F03D00120CBF8000002E001204649C8
:1030B000086000BF85F3118800BF0098BDE8F88F55
:1030C0002DE9F04105460F461DB90121384828F089
:1030D000F3FD00F082FC2C4600BF5021EFF311807D
:1030E00081F31188BFF34F8FBFF36F8F00BF064688
:1030F00094F85C80022084F85C00A06D401CA06500
:10310000B8F1010F34D1A06A08B9012000E0002015
:1031100018B90121264828F0CFFD29480068A8B930
:10312000201DFDF7B7FC94F82C10012088402149A0
:10313000096808431F490860E16A01EB81011E4AE2
:1031400002EB8100211DFDF77FFC04E004F1180172
:103150001C48FDF779FC1549E06A0968C96A88428C
:1031600006D917B10120386002E001201649086035
:1031700000BF86F3118800BFBDE8F08170B5054639
:1031800015B90A48006800E02846064600F0D6FB5C
:1031900096F85C00022804D1002086F85C00012427
:1031A00000E0002400F0EBFB204670BD4000002052
:1031B0003061022060000020E80B002004ED00E0F8
:1031C000800000209C0C00206C0000202DE9F041C4
:1031D00004460D4616461F464FF000086560246100
:1031E000B5420CD8F01BA169884202D34FF0010808
:1031F00011E0211DFE480068FDF732FC0BE0BE42E5
:1032000004D2BD4202D34FF0010804E0211DF94869
:103210000068FDF725FC4046BDE8F0812DE9FE433E
:1032200004460D4616461F46DDF828804FF000097B
:103230001CB90121F04828F03FFDF048006810B3A8
:10324000009501960294062D15DAFFF779FC022805
:1032500008D1002342466946E8480068FDF785FD2D
:10326000814610E000231A466946E4480068FDF7ED
:103270007CFD814607E000233A466946DF48006846
:10328000FDF7D1FF81464846BDE8FE832DE9F843AE
:103290002BE0D8480068C0680568D6480068C06858
:1032A000C468201DFDF7F6FB2046616A8847E06987
:1032B00001281AD1A0694619AE4207D96660246177
:1032C000211DCC480068FDF7CBFB0EE00020034633
:1032D0002A46014600902046FFF7A0FF07461FB987
:1032E0000121C54828F0E8FC00BFC248006800681A
:1032F00008B9012000E000200028CAD0BD48D0F85D
:103300000080BB480068BB490860B948C0F800802D
:10331000BDE8F88370B50446FFF7AEF90546B84836
:103320000068854204D2FFF7B1FF0120206001E070
:1033300000202060B2480560284670BD70B586B098
:103340005FE0039800285CDB059C606908B90120F8
:1033500000E0002010B9201DFDF79CFB02A8FFF73C
:10336000D9FF054603980A2849D2DFE800F009058D
:10337000072A2C4106082B2D00BF00BF00BF00BF4D
:103380000498A269811803462A462046FFF71EFFCB
:10339000B0B12046616A8847E069012810D1002059
:1033A00000900498A1694218002319462046FFF7AF
:1033B00035FF06461EB901218F4828F07DFC00BF6D
:1033C0001EE000BF1CE000BF0498A061A06908B126
:1033D000012000E0002018B90121874828F06CFC8A
:1033E000A06941192B462A462046FFF7EFFE07E069
:1033F00094F82C0010B9204600F01DFE00E000BF3C
:1034000000BF002203A97D480068FDF7E8FF0028FF
:1034100097D106B070BDF8B505460F4675480068EF
:10342000C068C468201DFDF735FBE069012816D18E
:10343000A06941192B463A462046FFF7C7FE70B1F6
:10344000002003462A46014600902046FFF7E6FE8C
:1034500006461EB90121684828F02EFC00BF204610
:10346000616A8847F8BDF8B505460C46FEF789FD48
:103470006846FFF74FFF0646009820BB44B9B542A7
:1034800006D8FEF7D7FC31462846FFF7C4FF1CE0FC
:103490003CB157480068006808B9012000E00020EE
:1034A0000446A91B224655480068FEF712FAFEF7AB
:1034B000C1FC50B94FF0805052490860BFF34F8FA4
:1034C000BFF36F8F01E0FEF7B5FCF8BD0146494A36
:1034D000126812680AB9012200E000220A600A6834
:1034E00022B9444A1268D268106800E00020704790
:1034F00008B5FDF714F900BF6846FFF7E7FF04467B
:1035000020460099FFF7AFFFFFF718FFF4E708B573
:1035100000F014FA39480068E8B93B48FDF784FA2E
:103520003A48FDF781FA384832490860374830494F
:1035300008600020364B374A0C2100900A20FDF726
:1035400014FB2E4908600846006820B132A12B48C0
:103550000068FEF798F900F012FA08BD10B586B0C1
:103560000024FFF7D4FF25480068D0B10020059063
:10357000049003AA04A905A8FDF713F90522DDE9C3
:1035800004100023CDE90021029025A12648039ACA
:10359000FEF78DFA254908600846006800B101244D
:1035A00000BF1CB90121144828F086FB204606B054
:1035B00010BD2DE9F04706460D4617469846DDE951
:1035C00008940DB1012000E0002018B901210A483B
:1035D00028F072FB5CB1FFF79AFF2660A561E761F6
:1035E000C4F82080C4F82490201DFDF72AFA1FE0BB
:1035F0008800002084000020306102208C00002020
:103600009400002004ED00E0D80C0020EC0C002019
:10361000000D0020500D0020546D7251000000007C
:10362000546D722053766300F13400009000002046
:10363000BDE8F0872DE9FC4705460E46174698463B
:10364000DDF82890302000F072FC044654B1434667
:103650003A4631462846CDE90094FFF7AAFF0020FC
:1036600084F82C002046BDE8FC872DE9FC4706467F
:103670000F4690469946DDE90AA530200190019851
:10368000302801D1012000E0002018B901213F4875
:1036900028F012FB1DB901213C4828F00DFB2C46F7
:1036A00054B14B46424639463046CDE900A4FFF7B7
:1036B00080FF012084F82C002046BDE8FC8710B56F
:1036C0003348006808B1012000E0002018B901214A
:1036D0002E4828F0F1FA2E48006810BD70B5044657
:1036E00025461CB90121294828F0E6FAA86970BDD1
:1036F00070B5044625461CB90121244828F0DCFA9F
:103700006E68304670BD70B5044625461CB901216F
:103710001E4828F0D1FA286870BD70B504462646C8
:103720001CB90121194828F0C7FA00F007F970699F
:1037300008B9012000E0002080F0010500F01FF929
:10374000284670BD70B5044626461CB901210F48B5
:1037500028F0B2FA00F0F2F8356A00F010F92846C5
:1037600070BD70B504460D4626461CB901210748B8
:1037700028F0A2FA00F0E2F8356200F000F970BD1E
:103780000146886A704781627047000030610220FC
:1037900090000020A5480068401C08B9012000E006
:1037A000002018B90121A24828F086FA00BF502055
:1037B00080F31188BFF34F8FBFF36F8F00BF00BF3F
:1037C000FEE7001F4FF080730360001F21F001032C
:1037D0000360001F974B036014380260001F6FF0F6
:1037E000020303602038704700204FF0E021086199
:1037F0008861914800684FF47A71B0FBF1F0401E87
:103800004FF0E02148610720086170471CB58B48E4
:1038100000688B49884201D0012000E0002018B9DF
:103820000121834828F048FA844800688449491EE9
:10383000884201D0012000E0002018B901217C4815
:1038400028F03AFA7F4C204600780190FF2021466C
:1038500008700846007800909DF8000000F0F00025
:103860009DF80010884201D1012000E0002018B925
:1038700001216F4828F020FA9DF8000000F0500068
:103880007149087007207149086009E06F480068B5
:10389000401E6E4908609DF800004006000E009032
:1038A0009DF8000000F080008028EFD06748006895
:1038B000C0F10700042801D1012000E0002018B960
:1038C00001215B4828F0F8F96048006800025F4970
:1038D00008600846008800F4E060086059490198D3
:1038E000087056482030006840F470005349203179
:1038F00008600846006840F070400860FFF774FFF9
:1039000000204A490860FCF785FC5148006840F0F7
:1039100040404F490860FCF769FC00201CBD10B511
:1039200042480068B0F57A7F01D1012000E0002014
:1039300018B901213E4828F0BFF910BD10B500BFED
:10394000502080F31188BFF34F8FBFF36F8F00BFFC
:1039500036480068401C3549086008460068012860
:103960000CD13648001D0068C0B208B9012000E043
:10397000002018B901212E4828F09EF910BD10B57D
:103980002A48006818B90121294828F095F92748E4
:103990000068401E254908600846006820B90020DC
:1039A00080F3118800BF00BF10BD10B500BF5020CC
:1039B00080F31188BFF34F8FBFF36F8F00BFFEF707
:1039C00082F920B14FF080501C49091D086000BFEA
:1039D000002080F3118800BF10BD70B5FCF752FCC9
:1039E0000546102D0FD305F1E02090F8F04316485E
:1039F0000078844201DB012000E0002018B9012199
:103A00000B4828F059F90D480C30006800F4E060CC
:103A10000E490968884201D8012000E0002018B949
:103A20000121034828F048F970BD000098000020EB
:103A300030610220953700000000002000ED00E01A
:103A400071C20F4100E400E09C000020A0000020B3
:103A500034EF00E038B505461DB90121F84828F0DB
:103A60002BF9202000900098202801D1012000E0AF
:103A7000002018B90121F24828F01EF92C4634B173
:103A800000202060201DFCF7CFFF0120207720467A
:103A900038BD10B5202000F04AFA044634B10020A9
:103AA0002060201DFCF7C0FF00202077204610BDBD
:103AB0002DE9FE4F07468846002001903C460090C5
:103AC0001FB90121DE4828F0F7F808F07F4008B957
:103AD000012000E0002018B90121D94828F0ECF8B5
:103AE00004F1040909F108000290FEF74AFAD9F836
:103AF0000C60206840EA0800206026E0D6F804B098
:103B000035680020009005F07F4A25F07F450AF0D7
:103B1000806028B92068284040B10120009005E06D
:103B200020682840A84201D101200090009858B197
:103B30000AF0807010B1019828430190206840F08D
:103B400000713046FEF743FF5E4602988642D5D1AB
:103B50002068019988432060FEF76CF92068BDE871
:103B6000FE8F2DE9F84F8346884614461F465D4672
:103B70000020009004F07F4008B9012000E0002000
:103B800018B90121AE4828F097F80CB1012000E0E7
:103B9000002018B90121AA4828F08EF8FEF7D0FFBE
:103BA00000B90FB9012000E0002018B90121A44894
:103BB00028F082F8FEF7E5F9D5F80090414658461E
:103BC000FFF776FF49EA08002040A04206D149EA03
:103BD00008062868A043286000270BE03FB144F0A6
:103BE000A0613A46281DFEF77EFE002602E02E6800
:103BF00001200090FEF71EF9824607B3BAF1000FCC
:103C000007D14FF080508F490860BFF34F8FBFF34B
:103C10006F8FFFF7B3F8064606F0007068B9FFF73C
:103C20008DFE2E6806EA0400A04202D12868A04357
:103C30002860FFF7A4FE0120009026F07F46304662
:103C4000BDE8F88F10B50346002022B903EA01044D
:103C500034B1012004E003EA01048C4200D10120C8
:103C600010BD2DE9FF4F83B081460D461746DDF8A4
:103C700040804C464FF0000A00200190B9F1000F3F
:103C800003D101216E4828F017F805F07F4008B9EC
:103C9000012000E0002018B90121694828F00CF843
:103CA0000DB1012000E0002018B90121644828F07E
:103CB00003F8FEF745FF10B9B8F1000F01D101205C
:103CC00000E0002018B901215D4827F0F5FFFEF75C
:103CD00058F9206800902946069A0098FFF7B2FF2D
:103CE0000290029838B1009E4FF00008C7B12068DA
:103CF000A843206014E0B8F1000F03D1009E01201A
:103D000001900DE00FB14AF0807A069808B14AF0B0
:103D1000806A45EA0A014246201DFEF7E4FD0026BE
:103D2000FEF788F88346B8F1000F23D0BBF1000FEF
:103D300007D14FF0805043490860BFF34F8FBFF366
:103D40006F8FFFF71BF8064606F0007080B9FFF78B
:103D5000F5FD266829463046069AFFF773FF18B12D
:103D600017B12068A843206001200190FFF707FEEB
:103D700026F07F46304607B0BDE8F08F2DE9F041D0
:103D800005460E462C461DB901212D4827F094FF0B
:103D900006F07F4008B9012000E0002018B9012199
:103DA000274827F089FFFFF7C9FD27682068B0433F
:103DB0002060FFF7E4FD3846BDE8F08170B50146AC
:103DC0000B4600BF5025EFF3118085F31188BFF338
:103DD0004F8FBFF36F8F00BF02461C68104680F301
:103DE000118800BF204670BD70B505462E46341DB3
:103DF000FEF7C7F811E004F10800E168814201D044
:103E0000012000E0002018B901210D4827F054FFDF
:103E10004FF00071E068FEF7DAFD20680028EAD173
:103E2000307F10B9304600F006F9FEF703F870BD98
:103E300070B504460D4629462046FFF739FE70BD91
:103E40003061022004ED00E070B504460D462946BD
:103E50002046FFF793FF70BD01460A4609B90020CE
:103E600000E09069704781617047000010B501461D
:103E7000904800E0006803688B42FBD30246436829
:103E800013448B4204D143684C6823444360014689
:103E90000A464B6813440468A34211D1864C036858
:103EA0002468A34208D04B680468646823444B60CC
:103EB00003681B680B6005E07F4B1B680B6001E02B
:103EC00003680B60884200D0016010BD30B54FF42C
:103ED000D4337A4800F007042CB1C01D20F007004D
:103EE000764C041B1B1B0246724C22600024714D51
:103EF0006C60D018083820F007006F4C2060002458
:103F00006D4D2D686C606C4D2D682C601146441A07
:103F10004C60694C24680C60694D4C682C60694D9C
:103F20004C682C604FF00044674D2C6030BD2DE98B
:103F3000F04104464FF00008FEF723F85E480068A1
:103F400008B9FFF7C3FF60480068204000285DD132
:103F50009CB1083404F0070078B104F00700C0F108
:103F60000800044404F0070008B9012000E0002024
:103F700018B90121554827F09FFE002C46D0514822
:103F80000068844242D84B4E3046056801E02E4618
:103F90002D686868A04202D228680028F7D14648F8
:103FA0000068854232D0306800F108082868306027
:103FB0006868001B102812D92F1907F0070008B9EC
:103FC000012000E0002018B90121404827F074FECC
:103FD0006868001B78606C603846FFF747FF394916
:103FE00068680968081A3749086008460068344953
:103FF0000968884203D23348006831490860324971
:10400000686809680843686000202860FDF712FFAF
:10401000B8F1000F01D1FCF7F9FB08F0070008B96F
:10402000012000E0002018B90121284827F044FEB3
:104030004046BDE8F08170B506463546002E31D0C9
:10404000083D2C46204960680968084008B10120F5
:1040500000E0002018B901211C4827F02DFE20683F
:1040600008B9012000E0002018B90121174827F005
:1040700023FE154960680968084098B1206888B92E
:1040800011496068096888436060FDF77AFF0D494F
:104090006068096808440B4908602046FFF7E6FE9F
:1040A000FDF7C8FE70BD0748006870470448006807
:1040B00070477047A4000020AC000020C80D00200D
:1040C000B4000020B0000020B800002030610220C1
:1040D00010B50022002100F01F040123A340DA43A1
:1040E000F849032303EA907301EB83010B68134043
:1040F0000B6010BD00B5F448FFF7EAFF00BDF0B556
:1041000000230024C0F38725E5B1C0F38145022DCB
:1041100002D1EC4C28340CE0C0F38145032D02D1D0
:10412000E84C2C3405E0C0F38145E64E1C3606EB26
:1041300085042568C0F38726C0F34417BE40B54305
:1041400015432560C0F3426575B1C0F30175DD4EBE
:104150000C3606EB85031D68C0F34266C0F30457B6
:10416000BE40B5430D431D60F0BD10B500220021D7
:1041700000F01F04012303FA04F2D249032303EAE7
:10418000907301EB83010B6813430B6010BD70B596
:1041900004460D46164645F0100040EA4610C9494F
:1041A0005C310860C848FFF7E0FF00222146C6489E
:1041B000FFF7A5FF70BDC548006840F00400C34983
:1041C0000860C048001F006840F080008906C1F800
:1041D000000230BF7047BD48006820F00400BB49B2
:1041E0000860B848001F006820F080008906C1F808
:1041F000000230BF7047B349091F096801F001018F
:1042000009B1B34800E000207047AE49091F0968B2
:1042100001F00201022901D1880300E0002070476B
:1042200010B5FCF741F8A7483030006800F00700EF
:1042300010B9A84804682DE0A2483030006800F0AA
:104240000700012803D1A3480068440822E09D48E4
:104250003030006800F00700022803D19D48006854
:10426000840817E097483030006800F00700032802
:1042700003D198480068C4080CE0924830300068C8
:1042800000F00700042803D192480068040901E007
:1042900090480468204610BD10B5FCF705F8894821
:1042A0003030006800F0700010B98A4804682DE0D2
:1042B00084483030006800F07000102803D1854831
:1042C0000068440822E07F483030006800F0700049
:1042D000202803D17F480068840817E079483030EF
:1042E000006800F07000302803D17A480068C408E4
:1042F0000CE074483030006800F07000402803D1B2
:1043000074480068040901E072480468204610BD42
:1043100010B5FBF7C9FF6F48006810BD10B5FBF77B
:10432000C3FF6C48006810BD10B501466A4A012001
:1043300005E0131EA2F1010201DC002005E0614B43
:104340004C331B680B408B42F3D100BF10BD70B5DE
:1043500004460D465B484C30006800F010064FF0F4
:104360008040D0F8000240F004005649091F086060
:104370001020FFF7D9FF53480C30006820F00700E9
:10438000C01D4FF08041C1F810024E481C3000683B
:1043900020F00F002843C1F820024A480C30006882
:1043A00020F00700204347490C310860FBF77CFFF1
:1043B00046B94448001F006820F004004FF08041D7
:1043C000C1F8000270BDF8B5002044A6366800961A
:1043D0003C4E3C36316801F4A02606B127E001F4DA
:1043E0000036B6F5003F09D101F40026B6F5002FDE
:1043F00001D1374A00E0364A104618E001F40026A1
:10440000B6F5002F01D1324A00E0314AC1F38137BD
:104410001DF80740C1F30806B31CC1F34426751C00
:1044200096085E4315FB04F7B6FBF7F6F000F8BDFF
:1044300024483C30006840F480304FF08041C1F89F
:10444000400270472DE9F34F87B00C46FFF7F0FFAD
:10445000079888B91B48001F006840F001004FF022
:104460008041C1F800020120FFF75EFF00200690A6
:10447000DFF85C90022611E01248001F006840F04F
:1044800004004FF08041C1F800021020FFF74CFFFC
:104490004FF400200690DFF838900426104884423C
:1044A0007DD8104884427AD34FF0FF380020029024
:1044B00003900190009401255EE0B8F1000F13D144
:1044C0005CE00000040200400600C05710ED00E070
:1044D000001BB7000000002080F52000010202044C
:1044E0000065CD1D80F0FA02032D44D0042D02D1C9
:1044F0000098840003E0022D01D1009844000226B8
:1045000036E0B8F1000F00D134E0B9FBF6FBD1483A
:1045100083452CD34000834529D84FF0020A21E07F
:10452000CBF35D0000FB0AF7CB48874218D3CB489A
:10453000874215D8B7EB940F02D9A7EB940001E09E
:10454000C7EB940004900498404509D2DDF8108030
:104550000296CDF80CA00195B8F1000F00D105E04E
:104560000AF1010A40F201208245D9D900BF761C28
:10457000202EC6D900BF6D1C042D9ED900BF019806
:10458000401E069941EA80310298401E41EA4021CE
:104590000398801E0143B2480160042000E00BE054
:1045A000FFF7C2FEDDE901014843B9FBF0F00399D2
:1045B0004843400005900FE0079820B944F21E20C0
:1045C000A749086002E0A748A54908600420FFF752
:1045D000ABFEFFF7F8FE0590059809B0BDE8F08F37
:1045E00070B504469E481030006800F010059E48E3
:1045F000844200D904469A484038006840F00400DC
:104600004FF08041C1F800021020FFF78DFE4FF0FF
:104610008040D0F8100240F007004FF08041C1F810
:1046200010020846D0F8200220F00F00C1F8200246
:104630008B484038006800F0010028B12146002076
:10464000FFF700FF04460AE021464FF40020FFF781
:10465000F9FE044682481030006800F01005002181
:104660000220FFF774FE45B97D484038006820F00D
:1046700004004FF08041C1F80002204670BD784927
:104680003039096821F0380101434FF08042C2F807
:104690001012704772494039096801434FF0804257
:1046A000C2F8001270476E494039096881434FF0E3
:1046B0008042C2F80012704700224FF0E0231A61D6
:1046C000042805D11A46126942F004021A6109E071
:1046D000634A303A126822F0380202434FF08043B6
:1046E000C3F810224FF0E022516100224FF0E02386
:1046F0009A611A46126942F003021A61704700205B
:104700004FF0E0210861704710B50446042C01D039
:10471000052C0BD152484038006840F008004FF09B
:104720008041C1F800020820FFF7FEFD4C485030E0
:10473000006820F0070020434FF08041C1F890024C
:1047400010BD47495031096821F4403101434FF011
:104750008042C2F890127047414854300068704758
:1047600070B50446002000253D486030042606FB55
:104770000400056840F2F71625EA060646EA011627
:1047800016431E4346F00105056070BD3FB5014666
:104790000022364D39CD8DE839003548814206D1A9
:1047A0002F482838006800F0010004B030BD3148BF
:1047B000814205D12A4828380068C0F34000F4E758
:1047C0002D48814205D1264828380068C0F30020D2
:1047D000EBE72A48814205D1214828380068C0F318
:1047E0004020E2E7C1F3426088B1C1F301735DF894
:1047F00023001B4B303BC2181068C1F34263C1F366
:104800000454A3401840C1F30453D840CDE700201E
:10481000CBE73FB501460022144D103539CD8DE868
:104820003900C1F3872090B1C1F381435DF82300C3
:104830000B4B203BC2181068C1F38723C1F344140B
:10484000A3401840C1F34413D84004B030BD002049
:10485000FBE7000000093D0080F0FA0240597307B1
:10486000400200401E42080000B0710B3CD1020023
:10487000100000A2110010A2120080A2130090A24A
:1048800010B5044638A0216827F0F8FE39A0616809
:1048900027F0F4FE3AA0A16827F0F0FE3BA0E16803
:1048A00027F0ECFE3CA0216927F0E8FE3DA06169FD
:1048B00027F0E4FE3EA0A16927F0E0FE3FA0E169F9
:1048C00027F0DCFE10BD04463FA027F0D7FE2046AF
:1048D000FFF7D6FF00BFFEE700BF4149896901F439
:1048E00000010029F9D13E4908600A2809D100BF1A
:1048F0003B49896901F400010029F9D10D21384AA9
:104900001160704710B504462046FFF7E5FF10BD63
:1049100008E03348806900F4804018B930480068E6
:10492000C0B27047F5E72E488069C0F38030704709
:104930002B488069C0F30070704710B504462046CC
:10494000FFF7E0FF10BD70B504460D462046FFF7A7
:10495000D9FF204670BD10B50446FFF7D9FF10BD42
:1049600001464FF0FF307047723020203D203078F4
:1049700025780A00723120203D20307825780A0001
:10498000723220203D20307825780A0072332020B2
:104990003D20307825780A00723132203D20307871
:1049A00025780A006C7220203D20307825780A0096
:1049B000706320203D20307825780A0070737220C3
:1049C0003D20307825780A00496E204861726420C5
:1049D0004661756C742048616E646C65720A0000F3
:1049E000000007404FF08041496801434FF080428A
:1049F000516070474FF080408069C0F3801070476D
:104A00004FF08040406870472C48006800F001007B
:104A100080F0010070474FF08040006870474FF011
:104A20008040806840F001004FF08041886070470E
:104A30004FF08040806840F002004FF08041886075
:104A4000704700220021012303FA00F21B4BF83BC0
:104A500003EB10610B6813430B6001238340DA43BF
:104A60000B6813400B6070474FF08042926942F030
:104A700001024FF080439A611A46926922F00802BF
:104A800002439A611A46926922F4E0220A439A612B
:104A900070474FF08040806920F001004FF0804166
:104AA000886170470549F831096821F00301014325
:104AB0004FF08042C2F8F81170470000000100403A
:104AC00001F480621AB1702282610822826101F4CD
:104AD00000621AB1426942F00102426101F40052DF
:104AE0000AB1FC4A826101F480420AB11F22426489
:104AF00001F4004222B18022C26140F20F3282638F
:104B00007047002141607047416821F44051416085
:104B1000704742688A4342607047016941F40071FE
:104B20000161416941F480714161416841F4405142
:104B30004160704742680A43426070472DE9FF4177
:104B400004460D460026B046E34B0FCB8DE80F0020
:104B50000027E24884420AD1E1480068C0F30166B8
:104B60004FF08040D0F82002C0F3032843E0DD4836
:104B7000844209D1DA480068C0F38166A004D0F805
:104B80002002C0F3033836E0D74884420AD1D44823
:104B900008300068C0F301666004D0F8300200F00D
:104BA0000F0828E0D14884420BD1CD480830006876
:104BB000C0F381664FF08040D0F83002C0F3031894
:104BC00019E0CB4884420AD1C54808300068C0F3D8
:104BD00001762004D0F83002C0F303280BE0C5486A
:104BE000844208D1BE4808300068860FA004D0F87F
:104BF0003002C0F30338002020630320E060A06887
:104C0000BD490840A060012E03D1FFF7DCFB4DF841
:104C10002600FDB15DF8261008F10100B1FBF0F0AF
:104C200000EB5500B0FBF5F0871EB7F5803F0ED3C3
:104C30005DF8261008F10100B1FBF0F000EBC500B3
:104C4000B0FBF5F00221C1EB1010606202E047F00A
:104C500040506062BDE8FF8170B50346002500202A
:104C600013E0002405E0641CB4F1804F01D301255A
:104C700004E09E6906F48046002EF4D100BF012DA9
:104C800000D104E01E680E54401C9042E9D300BFDE
:104C900070BD2DE9FF5F04460D4617469846DDF8C6
:104CA00038B00026B1468C4B10330FCB8DE80F0087
:104CB000B2468A4884420AD189480068C0F3016636
:104CC0004FF08040D0F82002C0F3032943E085482C
:104CD000844209D182480068C0F38166A004D0F8FC
:104CE0002002C0F3033936E07F4884420AD17C4871
:104CF00008300068C0F301666004D0F8300200F0AC
:104D00000F0928E0794884420BD1754808300068C3
:104D1000C0F381664FF08040D0F83002C0F3031931
:104D200019E0734884420AD16D4808300068C0F326
:104D300001762004D0F83002C0F303290BE06D485F
:104D4000844208D1664808300068860FA004D0F875
:104D50003002C0F30339012E03D1FFF734FB4DF8C5
:104D6000260005B35DF8261009F10100B1FBF0F053
:104D700000EB5500B0FBF5F0A0F1020ABAF5803F58
:104D80000ED35DF8261009F10100B1FBF0F000EB45
:104D9000C500B0FBF5F00221C1EB1010606202E02B
:104DA0004AF04050606247EA080040EA0B00E060C9
:104DB000BDE8FF9F026A22F0FF020A4302624268D6
:104DC00042F40062426070472DE9FF4704460D46F9
:104DD00090460027B946404B20330FCB8DE80F009B
:104DE000022020633D4884420AD13D480068C0F358
:104DF00001674FF08040D0F82002C0F3032943E060
:104E00003848844209D136480068C0F38167A0045D
:104E1000D0F82002C0F3033936E0334884420AD187
:104E20002F4808300068C0F301676004D0F83002F2
:104E300000F00F0928E02D4884420BD128480830A3
:104E40000068C0F381674FF08040D0F83002C0F3B3
:104E5000031919E0264884420AD121480830006825
:104E6000C0F301772004D0F83002C0F303290BE02F
:104E70002048844208D11A4808300068870FA004EF
:104E8000D0F83002C0F30339012F03D1FFF79BFAAA
:104E90004DF827008DB15DF8271009F10100B1FB35
:104EA000F0F000EBC500B0FBF5F00221C1EB1016ED
:104EB0004FF6FF70864200D26662B8F1000F1DD136
:104EC000A06A40F04000A062A06A20F00200A06248
:104ED0001CE00000010000015CD10200000007405E
:104EE0001402004000100740002007400030074037
:104EF00000400740005007400FFFF0FFA06A20F07D
:104F00002000A062A06A40F00200A062BDE8FF8716
:104F100010B503230363C36A194C2340C362C36AF9
:104F200041EA02642343C36210BD10B50123036349
:104F3000C36A23F0CF03C362C36A41EA0204234376
:104F4000C36210BD70B503460025002013E00024A5
:104F500005E0641CB4F1804F01D3012504E09E6993
:104F600006F08056002EF4D000BF012D00D104E0E1
:104F70000E5C1E60401C9042E9D100BF70BD000075
:104F8000FFF8FF0010B502B1C3608C0044EA420490
:104F9000846010BD816841F001018160704710B5E7
:104FA0000A468468C4F38104641C6300002106E09F
:104FB00000F1100454F8214042F82140491C994264
:104FC000F6D3846824F00204846010BDF0B5DDE9F6
:104FD00005450E0646EA024646EA032646EA8406E8
:104FE00046EA8556C0F80061D0F80061FE4F47F8E8
:104FF0002160F0BD10B5FC4B53F82130C0F80031F2
:10500000D0F80031012444EA42142343C0F80031AF
:1050100010BDF0B50446C1EB011C04F5887707EB21
:105020008C05042707EB4306002004E052F82070AB
:105030002F602D1D401CB042F8D3F0BD70B5034663
:10504000C1EB011603F5987505EB8604002004E01A
:1050500052F820502560241D401C0428F8D370BD50
:10506000F0B51446059DC1EB011700F5A07606EBDF
:1050700087021460C1EB0117361D06EB870213602F
:10508000C1EB0117361D06EB87021560F0BDF0B5C8
:1050900005AC70CC0F0647EA02472F4347EA465754
:1050A000DFF848C34CF8217033B1674657F82170D8
:1050B00047F004074CF8217044B1CC4F57F82170E9
:1050C00047F00807DFF824C34CF82170F0BD10B595
:1050D000C64B53F82130012444EA42142343C34C05
:1050E00044F82130234653F82130C0F8003210BD77
:1050F00070B504460B4604F50275402606FB0351C5
:10510000002009E052F830500D60091D02EBC00587
:105110006D680D60091D401C0328F3D370BD30B5C8
:1051200000F5087505EB811422602D1D05EB811437
:10513000236030BD70B51446049D00F50A7606EB79
:1051400081121460361D06EB81121360361D06EBCA
:105150008112156070BD10B50C0244EA8254C0F88B
:1051600000433BB1C0F84833D0F8004344F010048A
:10517000C0F8004310BDD0F8002322F0E002C0F8D0
:105180000023D0F80023012343EA41131A43C0F857
:1051900000237047C0F84C13C0F85023704730B557
:1051A00002460C46D2F80053C5F3022008B9052187
:1051B0000CE0052801D1072108E0042801D10821CD
:1051C00004E0072801D10C2100E0102102F5427310
:1051D000002004E01D6844F820501B1D401C88423C
:1051E000F8D330BD7047392803DCA0F13001C8B2D4
:1051F0000AE07A2805DC612803DBA0F15701C8B278
:1052000002E0A0F13701C8B270472DE9F047074628
:105210008846384626F052FB441E4FF0000A17E03D
:105220004FF0000900260AE0385DFFF7DCFF054675
:10523000B00005FA00F040EA0909641E761C082E49
:1052400001D2002CF0DA50460AF1010A48F8209009
:10525000002CE5DABDE8F0872DE9F74F81460D46D1
:10526000484626F02BFB441E4FF0000A002721E0A1
:105270004FF0000BD84613E019F80400FFF7B3FF16
:1052800006460298864006F00F0038434FEA880130
:10529000884040EA0B0BC6F30317641E08F10108AF
:1052A000B8F1080F01D2002CE6DA50460AF1010AE3
:1052B00045F820B0002CDBDA0FB145F82A70BDE8C4
:1052C000FE8F0246880022FA00F000F00F00484BE3
:1052D000185C70472DE9F0470546884616460020C1
:1052E00070556C1E81460FE0002707E058F8290032
:1052F0003946FFF7E6FF3055641E7F1C082F01D2A8
:10530000002CF3DA09F10109002CEDDABDE8F08791
:1053100070B506460025002418E0C4EB0410C0EB6D
:105320000420344911F82000B0420CD1C4EB041021
:10533000C0EB04200A4602EB80014FF471722E4844
:1053400026F06CFA2C4D05B102E0641C152CE4D358
:1053500000BF284670BD2DE9F04104460E460027E7
:105360003046FFF7D5FF254908600846006810B9A8
:1053700000BF00BF7F1E002F7ED1002513E000215B
:1053800004F6281040F82510483040F8251004F69F
:10539000080040F82510483040F8251004F6B810F1
:1053A00040F825106D1C122DE9DB04F62811134876
:1053B00000680830FFF729FF04F517610F480068FF
:1053C0009830FFF722FF04F608010C48006800F54A
:1053D0009470FFF71AFF04F505610848006800F5AE
:1053E000DC70FFF712FF0BE0C8B50120D8B5012033
:1053F000C40000208CD10200E8B50120D8000020B4
:1054000000BF00BF0A2204F62811EDA0FFF7EAFE54
:105410000A2204F51761EFA0FFF7E4FE0A2204F662
:105420000801F1A0FFF7DEFE0A2204F50561F3A0F2
:10543000FFF7D8FEF6480068D0F8C00301287DD1F8
:10544000C4F8B809F24A1268D2F8B003C21700EBE8
:10545000D262531104F6B81252F82320EC4B1B68A9
:10546000D3F8B013CB1701EBD3635B11A1EB431C53
:10547000012303FA0CF300E08DE01A43E44B1B68B0
:10548000D3F8B003C31700EBD3634FEA631C04F6F1
:10549000B81343F82C20DE4A1268D2F8B403C217BE
:1054A00000EBD262531104F6B81252F82320D84B05
:1054B0001B68D3F8B413CB1701EBD3635B11A1EBDB
:1054C000431C012303FA0CF31A43D14B1B68D3F896
:1054D000B403C31700EBD3634FEA631C04F6B8139D
:1054E00043F82C20CA4A1268D2F8B803C21700EB5E
:1054F000D262531104F6B81252F82320C44B1B6831
:10550000D3F8B813CB1701EBD3635B11A1EB431CAA
:10551000012303FA0CF31A43BD4B1B68D3F8B803FD
:10552000C31700EBD3634FEA631C04F6B81343F8C8
:105530002C20B74A1268D2F8BC0300E023E0C2175F
:1055400000EBD262531104F6B81252F82320B04B8C
:105550001B68D3F8BC13CB1701EBD3635B11A1EB32
:10556000431C012303FA0CF31A43A94B1B68D3F81D
:10557000BC03C31700EBD3634FEA631C04F6B813F4
:1055800043F82C2007E004F6B811A148006800F5A4
:105590001370FFF73AFE0A2204F6B8119DA0FFF738
:1055A00021FE3846BDE8F081302804DB392802DCD2
:1055B000A0F13001C8B2612804DB662802DCA0F14A
:1055C0005701C8B2412804DB462802DCA0F13701AC
:1055D000C8B2704710B5024600E0521C107830285F
:1055E000FBD000E0491C08783028FBD01BE0107885
:1055F000412806DB10785A2803DC10782030C3B22B
:1056000000E013780878412806DB08785A2803DC84
:1056100008782030C4B200E00C78A34201D0012009
:1056200010BD521C491C10780028E0D108780028D1
:10563000DDD100BFF4E7416801F4800121B101210F
:10564000794A116089054160416801F4000121B186
:105650000121764A1160C905416070472DE9F04784
:1056600080460E4615464FF0FF373046FFF750FE96
:10567000674908600846006800B900BF284626F060
:105680001DF981466248006800F5407026F016F961
:10569000814500D20127284626F010F981465C4852
:1056A000006800F5407026F009F9814500D900270F
:1056B00000241EE0285DFFF777FF81465449096802
:1056C00001F54071085DFFF76FFF814501DA0127A1
:1056D00014E0285DFFF768FF81464D49096801F530
:1056E0004071085DFFF760FF814501DD002705E09F
:1056F000641C284626F0E2F8A042DBD800BF3846FA
:10570000BDE8F0872DE9F0470446894616461F4656
:10571000DDF820A04FF0000849462046FFF71BFEA9
:1057200008B14FF0FF38B8F1000F46D1002505E071
:10573000002104F5206040F825106D1C122DF7DBC8
:1057400004F520613046FFF760FD31480068D0F86D
:10575000C003012803D10020C4F8000803E04FF47F
:105760008070C4F800080020304908602E490860A5
:10577000D4F8000826490968B1F8B013002242EABB
:105780008151491C0843C4F8000800BF264800683E
:105790002649096808430028F8D01D4909683A4697
:1057A000486804F60801FFF795FD19490968524653
:1057B000486804F50561FFF78DFD4046BDE8F087B8
:1057C000435250545F4543435F43555256455F41F2
:1057D00000000000435250545F4543435F4355521D
:1057E00056455F4200000000435250545F4543431A
:1057F0005F504F494E545F5831000000435250549F
:105800005F4543435F504F494E545F59310000009C
:10581000D8000020435250545F4543435F435552E4
:1058200056455F4E00000000DC000020E000002034
:105830002DE9F05F0446894616461F46DDE90AABAE
:105840004FF0000849462046FFF785FD08B14FF0AC
:10585000FF38B8F1000F57D100250CE0002104F605
:10586000080040F82510483040F8251004F5206065
:1058700040F825106D1C122DF0DB04F608013046AF
:10588000FFF7C3FC04F505613846FFF7BEFC04F5DD
:1058900020615046FFF7B9FCF9480068D0F8C00312
:1058A000012803D10020C4F8000803E04FF4807001
:1058B000C4F800080020F3490860F3490860D4F8F0
:1058C0000008EF490968B1F8B013002242EA81519B
:1058D000491C0843C4F8000800BFEB480068E949C8
:1058E000096808430028F8D0E54909685A4648681D
:1058F00004F60801FFF7EEFCE1490968486804F581
:1059000005610C9AFFF7E6FC4046BDE8F09F2DE9E3
:10591000F05F04460D4617469846DDE90AAB4FF0A6
:10592000000929462046FFF716FD08B14FF0FF3960
:10593000B9F1000F71D100260CE0002104F52060C0
:1059400040F8261004F6080040F82610483040F8C9
:105950002610761C122EF0DB0A2D09D00B2D07D055
:105960000C2D05D00D2D03D00E2D01D0052D06D107
:10597000012204F520613846FFF76EFC13E0062D86
:1059800005D0072D03D0082D01D0092D06D1022204
:1059900004F520613846FFF75FFC04E004F5206160
:1059A0003846FFF732FC04F608014046FFF72DFCAD
:1059B00004F505615046FFF728FCB1480068D0F8AF
:1059C000C003012803D10020C4F8000803E04FF40D
:1059D0008070C4F800080020AA490860AA4908603D
:1059E000D4F80008A6490968B1F8B013002242EAC9
:1059F0008151491C0843C4F8000800BFA248006850
:105A0000A049096808430028F8D09D4909685A460A
:105A1000486804F60801FFF75DFC4846BDE8F09FC2
:105A200001F4C062B2F5007F04D14FF48072C0F877
:105A300000280DE0924A1268D2F8C023012A03D14F
:105A40000022C0F8002803E04FF48072C0F800285C
:105A500000228C4B1A608C4B1A60D0F80028884BBF
:105A60001B68B3F8B03341EA835343F001031A4390
:105A7000C0F8002800BF844A1268824B1B681A4392
:105A8000002AF8D000BFD0F8042802F00102002A52
:105A9000F9D170472DE9F04FA5B005468946164665
:105AA0001F46DDE92EAB4FF0000849462846FFF7B8
:105AB00052FC08B14FF0FF38B8F1000F7BD1002441
:105AC00005E0002105F5206040F82410641C122C2C
:105AD000F7DB05F520615046FFF797FB00212846CC
